:020000040800F2
:1000000000200020DD0F000829100008291000083A
:1000100000000000000000000000000000000000E0
:10002000000000000000000000000000C5280008DB
:1000300000000000000000002129000865290008D8
:1000400029100008291000082910000829100008AC
:10005000291000082910000829100008D10C0008F8
:10006000291000082910000829100008291000088C
:10007000291000082910000829100008291000087C
:1000800029100008291000080000000029100008AD
:10009000590C000829100008291000082910000830
:1000A000291000082910000829100008190D00085F
:1000B00029100008000000002910000800000000BE
:1000C0005FF808F110B50B4B1868FA21890002F0AF
:1000D00037FF0138084A50600848036A1B021B0AB0
:1000E000C02109060B4303620023936005331360AC
:1000F00010BDC0463400002010E000E000ED00E03C
:1001000070B50400404B5A680C231340042B43D0B5
:10011000082B44D0002B02D03C4B036001E03B4B4A
:10012000036039494B681B061B0F3948C35CDBB2BF
:1001300025682A00DA4062604B685B055B0FC35C90
:10014000DBB2DA40A2600B6BDB0544D4314BE360D9
:100150002D4B1B6B5B0648D42F4B23612A4B1B6B2B
:10016000DB0646D4294B6361274B1B6B9B0742D0B0
:10017000254B1A6B03231340012B3ED0224B1A6BE5
:1001800003231340022B3AD01F4B1B6BDB439B070F
:1001900032D11E4BA3612FE01C4B0360C1E71A4B09
:1001A0005D685B68AD022D0F0235DB0308D46B017F
:1001B0005B1B9801C01AC00045192D022560B0E7ED
:1001C000114BDB6A0F2119400131104802F0B8FED3
:1001D00045432560A5E70C4B5B685B0402D45308DC
:1001E000E360B5E79308E360B2E780231B02236175
:1001F000B4E76561B8E7A26170BDA561FCE7802343
:100200001B02A361F8E7C0460010024000127A000A
:1002100000000020809FD50012800000002904D13A
:10022000044A5369834353617047024A5369184330
:100230005061F9E700100240002904D1044A936993
:10024000834393617047024A936918439061F9E7C9
:1002500000100240002904D1044AD3698343D361CA
:100260007047024AD3691843D061F9E70010024091
:10027000002904D1044AD3688343D3607047024AFB
:10028000D3681843D060F9E70010024070B504004D
:100290000D00802190200901C00501F03AFE1F2CBD
:1002A0000DD9200001F090FD23001F33DBB2022B9B
:1002B0000ED9FF2C0CD0280001F086FD08E01F208D
:1002C00004402020204301F07FFD280001F07CFD48
:1002D000802190200901C00501F019FE70BD70B5A4
:1002E00006000D001400802190200901C00501F0D6
:1002F00010FE300001F068FD631EDBB2002C08D058
:100300002C00ED180135207801F05EFD0134AC427F
:10031000F9D1802190200901C00501F0F8FD70BDE0
:1003200070B506000D001400802190200901C00561
:1003300001F0EFFD300001F047FD631EDBB2002C41
:1003400009D02C00ED180135FF2001F03DFD207093
:100350000134AC42F8D1802190200901C00501F0A0
:10036000D6FD70BD70B5060080252D019024E405F2
:100370002900200001F0CDFD1F20304001F024FDB8
:10038000FF2001F021FD06002900200001F0BFFD43
:10039000300070BD00B583B0052214493020FFF74E
:1003A0009EFF052269461020FFF7BAFF6B461B78B7
:1003B0006E2B13D16B465B78522B11D16B469B7819
:1003C000462B0FD16B46DB78322B0DD16B4618795B
:1003D000343843425841C0B203B000BD0020FBE7AF
:1003E0000020F9E70020F7E70020F5E7A831000832
:1003F00010B504000020FFF7B5FF022C05D0FD2149
:1004000001400020FFF742FF10BD02210143C9B2A5
:10041000F7E710B504000020FFF7A4FF01212140F9
:10042000012398430143C9B20020FFF72FFF10BDFD
:1004300010B504000020FFF795FF0C2121400C238C
:1004400098430143C9B20020FFF720FF10BD10B54B
:100450000020FFF787FF8F2101403020014300205B
:10046000FFF714FF10BD10B501000520FFF70EFFC8
:1004700010BD10B500010F2319400143C9B204207B
:10048000FFF704FF10BD10B50238C1B20320FFF71B
:10049000FDFE10BD70B506000D00062822D88300B1
:1004A000144AD3589F460320FFF75CFF0130C4B2C3
:1004B0002C19802190200901C00501F02AFD0E4B66
:1004C000985D2023184301F07FFC013D013C6078DA
:1004D00001F07AFCAC42F9D1802190200901C005DD
:1004E00001F015FD70BD0978034B185CFFF7CEFED7
:1004F000F8E7C0467C310008A031000810B50400C0
:100500000620FFF72FFFF921014021430620FFF7C6
:10051000BDFE10BD10B504000620FFF723FFD72154
:10052000014021430620FFF7B1FE10BDF0B5C646DD
:1005300000B507000E0090460220FFF713FF0124CC
:10054000BC4064B2010021433F2529400220FFF74F
:100550009DFE414629400A4BD85DFFF797FE0120DA
:10056000FFF700FF012E07D0A043C1B20120FFF723
:100570008DFE04BC9046F0BD2043C1B2F6E7C046F4
:100580009831000810B5040005280AD80120FFF7AB
:10059000E9FE0123A3409843C1B20120FFF776FE94
:1005A00010BD00210120FFF771FEF9E710B5FF2112
:1005B000E120FFF76BFE10BD10B5FF21E220FFF731
:1005C00065FE10BD10B50720FFF7CCFE702101437A
:1005D000C9B20720FFF75AFE10BD10B50821002050
:1005E000FFF754FE3F210120FFF750FE03210220B8
:1005F000FFF74CFE03210320FFF748FE03210420F0
:10060000FFF744FE02210520FFF740FE0E210620E1
:10061000FFF73CFE00210720FFF738FE00211120E4
:10062000FFF734FE00211220FFF730FE00211320D7
:10063000FFF72CFE00211420FFF728FE00211520D3
:10064000FFF724FE00211620FFF720FE00211C20CA
:10065000FFF71CFE00211D20FFF718FEFFF7ACFF7F
:10066000FFF7A4FFFFF7AEFF802190200901C0052E
:1006700001F04DFC10BD000070B505000E00072014
:10068000FFF770FE0407640F052C0CD8084B185DAB
:10069000FFF768FE3070002808D0020029006120B2
:1006A000FFF73EFE02E000233370FF24200070BD00
:1006B0009831000870B580256D009024E40529006C
:1006C000200001F026FC0E490120FFF7E3FE052281
:1006D00000210120FFF72AFF0120FFF79AFEFFF714
:1006E00071FF0220FFF784FEFFF766FFFFF75EFF52
:1006F0002900200001F00BFC024B01221A7070BD92
:100700001C0000201F00002010B5074B984200D0AD
:1007100010BD8024A40001212000FFF7A9FD0021C5
:100720002000FFF7A5FDF3E70024014010B5C268E3
:100730000B688C682343CC6823430C6923434C69C2
:100740002343044C224013430A7952031343C360EA
:1007500010BDC04603D2FFFF002303600371836016
:10076000C360036143617047002904D1836802229A
:100770001343836070478368012213438360F9E762
:10078000836A194381624261704700008268802356
:100790001B06134383608268064B002A03DA8268D3
:1007A000013B002BF9D18368002B01DB006C704703
:1007B0000020FCE7FFEF00008368042213438360FE
:1007C0007047002904D1C36801229343C360704776
:1007D000C36801221343C360F9E7C368022293434D
:1007E000C360C3681943C16070470000CB0107D5DF
:1007F0008068044B18400140481E8141C8B27047D0
:100800000068F8E7FFFFFFFE70B5044D044C0A22B4
:100810002900206801F0B9FEF9E7C046CC19002094
:10082000A019002070B5094C2600250004E0012322
:100830003370322001F0ACF82378002BF7D000237E
:100840002B70322001F0A4F8F6E7C046100000201B
:10085000F0B583B06B460022DA711E4E1E4C6B461B
:10086000DF1D012252423900306801F08EFE1B4D1F
:100870008021280001F04BFB962001F089F88021AF
:10088000280001F046FB962001F082F88021280024
:1008900001F03DFB962001F07BF88021280001F05B
:1008A00038FB962001F074F88021280001F02FFB1E
:1008B000962001F06DF88021280001F02AFB39789C
:1008C000200001F0E9FB4021200001F008FC002895
:1008D000F9D0C4E7E01900200038014000040048C6
:1008E000F0B583B06B460022DA71594D594F3E0086
:1008F0000AE04121584801F0CFFB574C402120002D
:1009000001F0EDFB0028F9D00124644222006B467F
:10091000D91D286801F039FE6B46DB79322B04D0F3
:10092000332B4CD0312BF1D1E3E77988090A4A48BF
:1009300001F0B2FB484C4021200001F0D0FB002820
:10094000F9D07188444801F0A7FB434C40212000B6
:1009500001F0C5FB0028F9D03E4B1988090A3E4832
:1009600001F09AFB3C4C4021200001F0B8FB00282C
:10097000F9D0384B1988384801F08EFB364C4021AD
:10098000200001F0ACFB0028F9D0324B9988090A0D
:10099000314801F081FB304C4021200001F09FFBE9
:1009A0000028F9D02B4B99882B4801F075FB2A4C75
:1009B0004021200001F093FB0028F9D0A4E7274B49
:1009C0001978254801F068FB234C4021200001F0F4
:1009D00086FB0028F9D0214B59781F4801F05CFBB9
:1009E0001D4C4021200001F07AFB0028F9D01B4B60
:1009F0009978194801F050FB174C4021200001F074
:100A00006EFB0028F9D0154B1979134801F044FB0F
:100A1000114C4021200001F062FB0028F9D00F4B5F
:100A200059790D4801F038FB0B4C4021200001F0B2
:100A300056FB0028F9D0094B9979074801F02CFBA7
:100A4000054C4021200001F04AFB0028F9D05BE76B
:100A5000B4190020CC190020003801403C000020CF
:100A600010B5074C3221206801F00BFE054B002227
:100A7000DA7020680023002101F0B8FC10BDC046E8
:100A8000A41900203C00002010B5074C32216068FA
:100A900001F0F7FD054B0022DA71606800230021A8
:100AA00001F0A4FC10BDC046A41900203C000020A9
:100AB00010B5074C3221A06801F0E3FD054B002280
:100AC000DA72A0680023002101F090FC10BDC0463E
:100AD000A41900203C000020F0B5DE464F464646F3
:100AE000C0B586B0564D574F2E0095E0544BDA787E
:100AF000182313400F2202A98C4662441370524BF4
:100B0000186801F05AFE002811D1039B9B004F4A40
:100B1000D2180121D1704E4A9C5800F059FE0200B3
:100B2000002300930121200000F008FB26E0464B43
:100B30001868002300220F2102ACA446614401F092
:100B400055FCE2E701300432032821D003900292E1
:100B500014786445F6D154784445F3D194784C45E3
:100B6000F0D1012182003B4B1400D058494201F0E2
:100B700088FD364B1B19DB78002BB7D0039B9C00FC
:100B8000344BE05800230022002101F02FFC43E009
:100B9000002010E02C4B1B689846002300220F21F8
:100BA00002A884466144404601F020FC24E0013064
:100BB0000433032830D0040002931A78002AF6D1B7
:100BC0005A78002AF3D19A78002AF0D11F4B82007C
:100BD0006046D0549B1842465A704A469A70182371
:100BE0001940093B02AA944663441970164B1868D1
:100BF00001F0E3FD0028CDD1A400144B1B19012204
:100C0000DA70134BE45800F0E3FD02000023009378
:100C10000121200000F092FA012252422900386896
:100C200001F0B3FCE9784B07F6D533789C4673782E
:100C30009846B3789946054B1A00002086E7C046CF
:100C4000BC190020B8190020E01900203C00002049
:100C5000D4190020A419002010B582B000230193FC
:100C60000121154801F0CFFA002801D102B010BDD2
:100C7000022000F015FC002804D101210E4801F0EB
:100C8000CDFAF3E70D4C0E4B9A882280DA88628009
:100C90001B89A3800B48FFF78FFD0B4B18680223BD
:100CA00001AA210001F038FC019B002BE5D0074B85
:100CB000802252051A60E0E700400140C41900207C
:100CC0001000002000240140A019002004ED00E0E5
:100CD00010B5402001F0C6FE002800D110BD0A4C1E
:100CE0000A492000FFF7C8FC094B1870FFF76AFC9F
:100CF000084B186800230022210001F00DFC402061
:100D000001F0BAFEEAE7C046981900209D190020BC
:100D1000B0190020B819002000B583B06B4600223E
:100D2000DA710A490A4801F0E0F9002801D103B05C
:100D300000BD074801F0B4F96B46D91D0870054B9A
:100D400018680023002201F0E7FBF0E70501050029
:100D500000380140B419002070B582B001F0EAFEFD
:100D600001F020FF01F0D6FF01F058FF01F0A2FFD3
:100D70007D480321043002F027F802F093F8802127
:100D80009024E4054900200001F0C3F88021090106
:100D9000200001F0BCF8FFF795F905237349802284
:100DA0005202002B04D008681042FAD0013BF8E749
:100DB000FFF7F0FA002800D1CAE0AA216C4801F040
:100DC0006BF96B4C4021200001F089F90028F9D023
:100DD000FFF703FCFF20FFF7D5FB7320FFF743FB72
:100DE0002020FFF797FBFFF732FB0C20FFF720FBDB
:100DF0000320FFF748FB5C4D2C000C34210006203B
:100E0000FFF748FB21000020FFF744FB0620FFF717
:100E100075FB00210920FFF72CFB0020FFF7F9FAF2
:100E2000FFF7D0FB0220FFF7E3FA0024EC738026E3
:100E3000760090203100C00501F06BF8FFF73AFC16
:100E400000220621012001F0B8FA4A4B1860002266
:100E50000121082001F0B1FA474B1860002205215A
:100E6000062001F0AAFA454B186000220121032058
:100E700001F0A3FA424B186001940125009500236C
:100E800080224049404800F081FB019400950023F6
:100E900080223E493E4800F079FB019403230093F1
:100EA000002380223B493C4800F070FB01940095F0
:100EB0000023802239493A4800F068FB019402235C
:100EC0000093002332003749374800F05FFB374B6F
:100ED0000093002300226621354800F00BF9354DC0
:100EE0002860354B0093002300226621334800F030
:100EF00001F96860324B00930023002266213148DB
:100F000000F0F8F8A860012001F0F4FA2E4D2860F6
:100F1000012001F0EFFA6860012001F0EBFAA8600F
:100F200001212A4801F059F92948FFF745FC0F4AE9
:100F3000284B53602848036A1B021B0AC02109067C
:100F40000B43036294600723136000F00BFCFEE781
:100F5000BB21074801F0A0F8054C4021200001F01A
:100F6000BEF80028F9D033E71000002010E000E0C0
:100F700000380140A0190020B4190020B819002041
:100F8000E0190020B031000851080008B83100080D
:100F900025080008C431000809080008D0310008FD
:100FA000E1080008DC310008D90A0008610A0008DD
:100FB000E8310008D4190020890A0008F03100083F
:100FC000B10A0008F8310008A419002000400140CF
:100FD000002401403E1F000000ED00E00C48854663
:100FE000002103E00B4B5B58435004310A480B4B84
:100FF00042189A42F6D30A4A02E0002313600432F0
:10100000084B9A42F9D300F00BFFFFF7A5FEFEE76D
:101010000020002040320008000000203C0000209A
:101020003C000020541A0020FEE7000010B541608B
:10103000006191420BD8D21A012483699A4211D2DD
:10104000011D094B186800F091FF00240AE09A4244
:1010500002D20124994205D2011D034B586800F0C9
:1010600085FF0024200010BD4C00002070B501F069
:1010700037FC104B9B68002B02D001F03DFC70BD8B
:101080000C4C26000C36300000F056FF25002035B1
:10109000280000F051FF6660256000220C2103202B
:1010A00001F08BF9A0600028E7D0034901F090FB24
:1010B000E3E7C0464C0000202832000800B583B0AA
:1010C000FFF7D4FF084B9B680020002B0AD0064B8B
:1010D0003433019302230093002380220349044800
:1010E00000F054FA03B000BD4C000020303200087C
:1010F00039120008F0B583B007000E0001921D0000
:10110000282001F0D5FC041E14D024230022C25450
:10111000FFF7ACFF2760A661E56108992162201DF9
:1011200000F015FF019B002B04D02422A35C0421B6
:101130000B43A354200003B0F0BD000030B585B0D0
:101140001D00134B9C68002C20D00191029203904B
:10115000052913DC00F0FEFC022807D00C4B986830
:101160000023002201A901F041F90DE0084B986825
:101170000023089A01A901F039F905E000232A00AB
:1011800001A9200001F0C8F905B030BD0020FBE73F
:101190004C000020F0B5DE4657464E464546E0B5C9
:1011A00083B0814600F014FB8346224B9B6B834245
:1011B0000DD800234A4613601E4B5A469A63584680
:1011C00003B03CBC90469946A246AB46F0BD194DD3
:1011D0002423984604266B681A68002A22D0DB680C
:1011E0001A689246DC68271D380000F0D6FE200001
:1011F000236A98474346E35C1E42ECD0A3695344FC
:101200009A4507D2636024610A4B5868390000F0A0
:10121000ADFEDFE700230093524600212000FFF7D8
:101220008DFFD7E7034A11685160136001234A46D6
:101230001360C1E74C000020F0B589B05C4E7368C4
:101240001A68002A21D0DB681C6800F0B9FA05A8EA
:10125000FFF7A0FF0500059A002A60D1A04223D322
:1012600000F02CFB524B5B68DB68DF68381D00F038
:1012700094FE2423FB5C5A073DD40122934323327E
:10128000BB543B6A3800984717E000F099FA05A86C
:10129000FFF780FF0500059B002B40D1444B1B68E6
:1012A0001A6853425A410024611B414B986801F06F
:1012B000A7FA00F003FB00282ED03D4C002205A920
:1012C000A06801F062F90028B9D0059B0393002BB8
:1012D000F4DB079D6B69002B02D0281D00F05DFE3A
:1012E00004A8FFF757FF059A0392092AE6D893004E
:1012F000304AD3589F46BB69E11823002A003800C2
:10130000FFF794FE0028BCD00023009322000021A8
:101310003800FFF713FFB4E701F0D6FACDE700F08D
:10132000CDFACAE72422AB5C01210B43AB54069BE8
:10133000AA69944663441900069B02002800FFF73F
:1013400075FE0028BAD028002B6A98472423EB5C4E
:101350005B07B3D5069BA9698C4663441A0000233A
:10136000009300212800FFF7E9FEA7E72422AB5CE9
:1013700001218B43AB54A1E72422AB5C01210B4339
:10138000AB540699A9614118030002002800FFF739
:101390004DFE93E72423EB5C9A0704D50122934387
:1013A0002332AB548AE7280001F0C2FB86E7C0462F
:1013B0004C0000200032000803681C4A1340036000
:1013C0000023036043608360C360194B984212D0CE
:1013D000184B984215D0184B984218D0174B98428A
:1013E0001CD0174B98420BD1164A5168F0231B03AF
:1013F0000B43536004E0134A53680F210B435360BF
:101400007047104A5368F0210B435360F8E70D4AC8
:101410005168F0231B010B435360F1E7094A5168FF
:10142000F0231B020B435360EAE7C046FEFF0000B7
:10143000080002401C00024030000240440002400C
:10144000580002400000024010B503680C4A1A40E0
:101450008B680C6A23430C6923434C6923438C69D2
:101460002343CC6923434C6A23438C6A23431343AD
:101470000360CB6843600B6883604B68C36010BD3A
:101480000F80FFFF002904D10368044A1340036062
:1014900070470368012213430360F9E7FEFF000071
:1014A000034B1B681840431E9841C0B27047C046AA
:1014B00000000240074B1B681B68002B05D0054B42
:1014C0001A68D26812685A607047024B0122524271
:1014D0005A60F9E788000020F8B5124F3C00114E21
:1014E000BB68002B17D001F0FBF9A369DD68281D4C
:1014F00000F053FD236A013B2362A368013BA36014
:1015000001F0FAF9286B01F013FB280001F010FB41
:10151000A368002BE7D1736A012BE1D901F0D4F95C
:10152000DDE7C0468800002070B504000D00154BB3
:101530009E68D868043000F030FD631C12D0341966
:10154000104BDB685C60A64215D80F4D28680D4B28
:10155000D968043100F00AFD6B68A34211D90A4B27
:101560005C600EE0002DEAD00648C16804311030FE
:1015700000F0F0FC05E0034B586AD968043100F034
:10158000F5FC70BD0801002088000020F0B5CE46B3
:10159000474680B583B000900C0001939600300060
:1015A00001F086FA051E00D1D5E0702001F080FA26
:1015B000071E65D00563321FAA1807239A43160039
:1015C000002C63D022783423C2542378002B0CD013
:1015D000013403003533443022781A702278002A0F
:1015E00003D0013401338342F6D143230022FA545D
:1015F0000A9D042D00D90425FD627D640023BB648F
:101600003C1D200000F0A3FC3800183000F09FFCC7
:101610003F6105235B1BBB617F6238004C301422A5
:10162000002101F05DFD380060300C22002101F046
:1016300057FD38006C300322002101F051FD019A62
:101640000099300001F02EF938600B9B002B00D080
:101650001F6001F045F9414A136A01331362404BA0
:10166000DB68002B16D03E4B5B6E002B17D13C4B3A
:10167000DB68DB6AFA6A934211D8394BDF600EE00F
:10168000280001F055FA0120404228E034230022CE
:10169000C254ADE7324BDF60136A012B24D0304BCC
:1016A0009A6E01329A66FA6ADB6E9A4201D92C4B25
:1016B000DA662A4B90008218920024339818210091
:1016C00000F048FC01F018F9254B5B6E0120002B5F
:1016D00005D0234BDB68DA6AFB6A9A4237D303B042
:1016E0000CBC90469946F0BD15001000243000F067
:1016F00023FC2800383000F01FFC28004C3000F09C
:101700001BFC2800603000F017FC2800743000F04B
:1017100013FC134E28239946B144484600F00CFCB4
:101720003C239846B044404600F006FC3000503060
:1017300000F002FC28000C3000F0FEFB30001030FE
:1017400000F0FAFB4B462B6043467362A7E701F0BB
:10175000BBF80120C3E701204042C0E78800002019
:101760000801002000B583B0104B783301930023AB
:10177000009380220E490F48FFF708FF012803D08D
:101780000D4B1B6803B000BDFFF798FC0128F7D193
:1017900072B60A4B012252425A60044B02325A6618
:1017A00000229A6001F004F9EAE7C046080100202F
:1017B00038320008D91400082000002088000020DA
:1017C000024A136F013313677047C04608010020B7
:1017D000014B98687047C04608010020F8B5CE4616
:1017E000474680B5324B1B6F002B56D1304B9F685C
:1017F00001379F60002F38D02E4B5B680025BB421D
:1018000042D800252B4B994624229446634498469F
:101810004B461B681B68002B32D0264B1B68DB68CD
:10182000DE6873689F4235D3341D200000F0B5FB9D
:10183000B36A002B03D03000183000F0AEFBF36A1F
:101840001B4AD26E934201D9194AD3669800C01838
:1018500080004044210000F07DFB154BDB68F26AFC
:10186000DB6A9A42D4D30125D2E7124A1168586A3A
:1018700010605962DA6F0132DA67FFF71BFEBBE7CF
:101880000C4B012252425A60094B5B6F002B09D06E
:10189000012507E0074A5360F6E7074A136801335A
:1018A0001360002528000CBC90469946F8BDC04640
:1018B000080100208800002088010020F0B5C646FD
:1018C00000B501F00DF82F4B1A6F013A1A671B6F24
:1018D0000024002B4CD12C4B1B6A00250024002B2C
:1018E00046D0284F284B24229446634498463B6DAB
:1018F000002B21D0234EF36DDD682800183000F056
:101900004CFB2C1D200000F048FBEB6AF26E93426A
:1019100001D91C4AD3669800C018800040442100B9
:1019200000F018FB174BDB68DB6AEA6A9A42DED3E9
:10193000144B01225A67DAE7002D01D0FFF7BAFDF8
:10194000124B1C68002C0ED00E4E012502E0013C0B
:10195000002C05D0FFF742FF0028F8D07567F6E7A6
:101960000A4B00221A60074B5B6F0024002B05D145
:1019700000F0C2FF200004BC9046F0BD00F0A4FFC0
:101980000134F5E7080100208800002088010020CC
:1019900010B5041E09D0FFF713FF00212000FFF748
:1019A000C3FDFFF78BFF002801D100F08DFF10BDB4
:1019B00010B51D4B1B6F002B2CD11B4B00225A67FF
:1019C000DA6E93009B189B001849CB185B6A002BBA
:1019D00007D1013A93009B189B00CB185B6A002B40
:1019E000F7D0124B9100881880001818846A646838
:1019F00084628918890003002C339C420ED0930026
:101A00009B189B000949CB189B6AD968064BD96083
:101A1000DA6610BD044B01225A67FAE760680B00D2
:101A20000249CB189862EAE70801002088000020EC
:101A300010B50C00044BD968183100F097FA012159
:101A40002000FFF771FD10BD0801002070B50D00EA
:101A50001400074BD968183100F07CFA002C01D033
:101A600001256D4221002800FFF75EFD70BDC046D4
:101A70000801002070B5C368DC682500183528000F
:101A800000F08BFA144B1B6F002B1FD1251D280073
:101A900000F083FAE26A104BDB6E9A4201D90E4BDA
:101AA000DA660E4B900082189200243398182900B1
:101AB00000F050FA084BDB68E26ADB6A00209A42C9
:101AC00003D9054B01225A67013070BD0248290035
:101AD000503000F03FFAEDE70801002088000020B8
:101AE000024BDA6F02609B68436070470801002078
:101AF00070B505000C0000F0F3FE124B9B682268E5
:101B0000511C1CD069680F48C06F2E68864201D0F6
:101B1000994209D95B1A9A420AD80023236001240A
:101B200000F0EAFE200070BD002323600124F7E7E7
:101B3000D31A23602800FFF7D3FF0024F0E7002426
:101B4000EEE7C04608010020014B01225A677047AA
:101B500008010020054B5B6E0120002B04D0034BD5
:101B6000186F4342584140007047C04608010020AA
:101B700070B5041E3ED0C16A1F4BDB68DB6A994218
:101B800030D28369002B05DB1B4BDB68DA6A052347
:101B90009B1A8361194A8B0059188900130024335A
:101BA0005B1862699A4205D0134BDB68DB6AE3621B
:101BB00001201EE0251D280000F0EFF90E4BDA6829
:101BC000D26AE262DB6E9A4201D90B4BDA660B4BAA
:101BD00090008218920024339818290000F0BAF976
:101BE000012006E0044BDB68406CDB6A98428041D0
:101BF000404270BD0020FCE7080100208800002062
:101C000070B5041E24D0836C013B8364C26A416CAE
:101C10008A421FD00020002B00D070BD251D280057
:101C200000F0BBF9606CE06205231B1AA3610A4B4C
:101C3000DB6E984201D9084BD866084B8200121817
:101C4000920024339818290000F084F90120E4E779
:101C50000020E2E70020E0E70801002088000020E3
:101C600070B5041E09D0436C8B4200D20B00E26AAF
:101C70009A4202D0A16C012900D070BDE362A16933
:101C8000002902DB0521CB1AA3610F4B91008918B3
:101C9000890024335A1863699342EED1251D280028
:101CA00000F07BF9E26A094BDB6E9A4201D9074BDF
:101CB000DA66054B900082189200243398182900A8
:101CC00000F048F9D9E7C04688000020080100204C
:101CD000054BDB68002B04D0034BDA68936C0133AF
:101CE0009364014BD86870470801002010B5028842
:101CF000C1239B011A400B88CC892343CC88234302
:101D00000C8923434C8923438C8923431343038049
:101D10008388094A13408A88134383800B8A03828D
:101D20000388042293434A8813430380838B034A26
:101D30001340838310BDC046FFF0FFFFFFF7FFFF96
:101D4000002904D10388402293430380704703880D
:101D5000402213430380F9E78388034A13408380BA
:101D60008388194381807047FFEFFFFF064B99423C
:101D700005D00388802252001343038070470388F4
:101D8000024A13400380F9E7FFFE0000FFFEFFFF59
:101D900001737047007BC0B270470000002904D176
:101DA0000388054A1340038070470388802292010C
:101DB00013430380F8E7C046FFDFFFFF00890840B8
:101DC000411E8841C0B2704770B505000A4C02211F
:101DD0002000FFF7F3FF0028F9D029000648FFF79D
:101DE000D7FF054C01212000FFF7E8FF0028F9D0BC
:101DF0000148FFF7CFFF70BD00380040064B1122AD
:101E00001A60064B5A685A605A685A605A68032129
:101E10008A435A607047C0460020024000100240CA
:101E200010B5124B1A6801210A431A605A6810480B
:101E300002405A601A680F4802401A601A680E4839
:101E400002401A605A680D4802405A60DA6A0F2050
:101E50008243DA621A6B0A4802401A635A6B8A4359
:101E60005A6300229A60FFF7C9FF10BD00100240BC
:101E70000CB8FFF8FFFFF6FEFFFFFBFFFFFFC0FF00
:101E8000ACFEFFFFF0B5C64600B5002201250323D6
:101E9000984618E0036857004446BC40E44323409A
:101EA000036003689C460B79BB406646334303607E
:101EB000C3681C40C460C468CB79BB402343C36083
:101EC0000132102A20D02B0093400C681C40A34202
:101ED000F6D10B79013B012BDCD8836854004746CF
:101EE000A740BB43836087684B79A3403B43836033
:101EF00083882C009440A343838083888C7994400A
:101F000023439BB28380C5E704BC9046F0BD81614A
:101F100070470185704710B507230B409B00C90827
:101F200089004018016A0F249C40A1430162016AA4
:101F30009A400A43026210BD030008334360012245
:101F400052428260C3600361002303607047002334
:101F50000361704743684B609A688A609A68516071
:101F600099600861036801330360704730B50C68FD
:101F700002000832631C02D1026904E01A005368AF
:101F80001D68A542FAD953684B6099608A60516018
:101F9000086103680133036030BD036942688168EA
:101FA00091608268416851605A68824206D000227E
:101FB00002611A68013A1A601868704782685A60AC
:101FC000F5E70000F0B58BB004000D0003680122B6
:101FD000934303604368254A13408A681343436070
:101FE0000368234A1A404B68C9680B4329690B43AD
:101FF0001343036083681F4A13406A691343836075
:1020000003A8FEF77DF81C4B9C4221D0059E236857
:102010001B041FD576002B6801931900300000F0D7
:102020008FFF07000199300001F010F82A6852086C
:10203000002391425B41FF1823681B0404D53B0732
:102040005B0F0E4A17401F43BBB2A3810BB0F0BD1C
:10205000099EDCE72B6801931900300000F070FF47
:1020600007000199300000F0F1FFDFE7FFCFFFFF2D
:10207000F3E9FFFFFFFCFFFF00380140F0FF000025
:10208000002904D103680122934303607047036869
:10209000012213430360F9E7C905C90D01857047A3
:1020A000808CC005C00D704730B505008BB21B0A8F
:1020B000FF240C400121A140022B07D0032B07D0A5
:1020C000002A08D12B688B432B6030BD051DF7E734
:1020D00008300500F4E72B6819432960F5E7C0696B
:1020E0000840411E8841C0B2704710B58AB2120A3A
:1020F000FF240C400123A340012A0FD0022A10D054
:1021000082681340C2690020002B06D0090C013000
:1021100088400240501E8241D0B210BD0268134078
:10212000F0E742681340EDE710B503889BB21F4A01
:1021300090421CD08022D205904218D01C4A904276
:1021400015D01C4A90422AD00C891B4A13402343C5
:1021500003804B68C3620B880385184B984219D0E3
:10216000174B984216D0174B984213D014E07022A8
:1021700093434A8813430F4A904210D00C890E4A69
:102180001340234303804B68C3620B880385074BCE
:102190009842E2D18B7A03860123838210BD054ADF
:1021A00013804B68D3620B881385F5E7002C014040
:1021B0000004004000100040FFFCFFFF0040014011
:1021C000004401400048014001235B42436000237A
:1021D00003800381438083727047002904D1038800
:1021E0000122934303807047038801221343038035
:1021F000F9E7002A03D183898B4383817047838960
:1022000019438181FAE7028A83899BB200200A423E
:1022100003D01940481E8141C8B27047C94389B2F2
:102220000182704710B5040000F05AFBA46B00F067
:1022300063FB6042604110BD70B504001600856B01
:10224000026C002A0CD100202368002B02D001353B
:10225000A56370BDA068FFF7D3FC0023A360F6E779
:10226000002E0ED1406800F0F7FE6368226C9446A1
:10227000634463600020A2689342E8D323686360EC
:10228000E5E7C06800F0E8FE236C5A42E3689B185B
:10229000E36021688B4203D2A3689C466244E260FB
:1022A0000020022ED3D1002DD1D0013DCFE710B5B3
:1022B0000C00026C002A0BD0C3689B18C3608168B5
:1022C0008B4201D30368C360C168200000F0C4FEE4
:1022D00010BD70B5050000F003FB4523EC5C64B253
:1022E000002C04DD6B6A2E002436002B1FD1452301
:1022F000FF22EA5400F000FB00F0F2FA4423EC5C09
:1023000064B2002C04DD2B692E001036002B1DD189
:102310004423FF22EA5400F0EFFA70BDFFF714FCEB
:10232000013C64B2002CE2D06B6A002BDFD030009D
:10233000FFF7A0FB0028F3D0F0E7FFF705FC013C16
:1023400064B2002CE4D02B69002BE1D03000FFF701
:1023500091FB0028F3D0F0E770B504000D0000F009
:10236000BFFA2268216CE36B4B43D018A0600020B9
:10237000A06362605B1AD318E360FF234422A35476
:102380000132A354002D0FD12369002B03D100F09B
:10239000B3FA012070BD20001030FFF76BFB00285E
:1023A000F5D000F091FAF2E720001030FFF7C4FDFD
:1023B00020002430FFF7C0FDE9E770B506000D00EE
:1023C00008007043483000F073FB041E0AD0002D53
:1023D0000AD0030048330360E6632564012120002E
:1023E000FFF7BAFF200070BD2060F5E7F0B5D646D4
:1023F000474680B585B00400009101921F0000257A
:1024000044260023984632E03A0000992000FFF766
:1024100013FF636A002B09D1002810D100F06CFA79
:10242000012005B00CBC90469A46F0BD2000243037
:10243000FFF720FB0028F1D000F046FAEEE700F0AD
:1024400043FAEBE700F058FA0020EAE702A8FFF7AA
:1024500047FB19E04346A35520E045234246E2549A
:1024600021E02000FFF735FFFFF728FA012500F0F3
:1024700037FAA36BE26B9342C6D3022FC4D0019B01
:10248000002BDFD0002DE1D000F036FAFFF798F9ED
:1024900000F026FAA35D5BB20133DBD04523E35C99
:1024A0005BB20133D9D000F027FA01A902A8FFF7E7
:1024B0001FFB002817D100F013FAA36B9A46E56BB7
:1024C00000F01AFAAA45CCD1200010300199FFF78C
:1024D000AFFA2000FFF7FDFEFFF7F0F90028C5D1A5
:1024E00000F0F2F9C2E72000FFF7F3FEFFF7E6F98C
:1024F000002096E710B5020000210120FFF75DFFE4
:10250000041E07D0002383600360C3600022002103
:10251000FFF76CFF200010BDF0B583B007000091FD
:1025200001921D0000F0F2F90600BB6BFA6B9342BA
:1025300008D30024022D05D0300000F0EBF9200074
:1025400003B0F0BD4523FC5C64B2BB6B2A0000996C
:102550003800FFF771FE631C05D0013464B24523D7
:10256000FC540124E8E77B6A0234002BE4D03800F5
:102570002430FFF77FFA0028DED0019A002A02D02B
:1025800001231360D8E70124D6E7F0B5C64600B5AD
:1025900084B004000091019200274426002398464D
:1025A00038E000992000FFF782FE6B1EA3632369C9
:1025B000002B06D100F0A0F9012004B004BC904625
:1025C000F0BD20001030FFF755FA0028F2D000F0DF
:1025D0007BF9EFE700F090F90020EEE702A8FFF7A3
:1025E0007FFA21E04346A35528E045234246E254C2
:1025F00029E02000FFF76DFEFFF760F909E02000F9
:10260000FFF767FEFFF75AF92000FFF70BFE0028DF
:1026100035D1012700F064F9A56B002DC1D1019BD4
:10262000002BD7D0002FD9D000F066F9FFF7C8F8FB
:1026300000F056F9A35D5BB20133D3D04523E35CD0
:102640005BB20133D1D000F057F901A902A8FFF71E
:102650004FFA0028D3D12000FFF7E4FD0028C8D0AE
:10266000200024300199FFF7E3F92000FFF731FE45
:10267000FFF724F90028CCD100F026F9C9E70020A3
:102680009BE7F0B585B0040001910023009300257D
:102690004426002743E0013BA3632368002B09D0B5
:1026A0002369002B0AD100F027F901230093009839
:1026B00005B0F0BDFFF70CFBA060F1E72000103083
:1026C000FFF7D8F90028EED000F0FEF8EBE700F0B5
:1026D00013F900230093EAE702A8FFF701FA28E0C4
:1026E000A75530E04523E75432E000F0F9F8A06840
:1026F000FFF73EFA009000F0FFF839E02000FFF706
:10270000E8FDFFF7DBF809E02000FFF7E2FDFFF747
:10271000D5F82000FFF786FD002838D1012500F00C
:10272000DFF8A36B002BB6D1019B002BCFD0002D7F
:10273000D2D000F0E1F8FFF743F800F0D1F8A35D44
:102740005BB20133CCD04523E35C5BB20133C9D02B
:1027500000F0D2F801A902A8FFF7CAF90028D3D1E6
:102760002000FFF75FFD0028C8D02368002BBCD0F5
:10277000200024300199FFF75BF92000FFF7A9FD45
:10278000FFF79CF80028C9D100F09EF8C6E7009B2F
:10279000002B00D18BE700F0A3F8636A0021002B27
:1027A00003D0236B1B680531C91AA068FFF758FADC
:1027B00000F0A2F80023009379E770B5050000F05F
:1027C0008FF8AB6BEC6BE41A00F096F8200070BD4C
:1027D00010B50A4B1B68002B09D00123074CDA0007
:1027E000A258002A04D001330A2BF8D110BD0023CF
:1027F000024ADB009950D3185860F7E7041A00200A
:1028000070B504000D00160000F06AF84423E35C84
:102810005BB201330DD04523E35C5BB201330CD0D6
:1028200000F06AF8A36B002B0BD02000FFF751FDDE
:1028300070BD44230022E254EDE745230022E25418
:10284000EEE72000243032002900FFF7FFF8ECE724
:1028500082B00023019372B6019B002BFCD002B022
:1028600070470000000000000000000000000000B1
:102870000B4A13681868203080F30988022080F31F
:102880001488BFF36F8F3FBCAE4608BC04BC62B671
:102890001847C046C046C046C046C046C046C046AF
:1028A0001401002010B5031F802464041C60043B45
:1028B0001960043B02491960143B1A60403810BD8E
:1028C0005128000870470000044B802252051A600E
:1028D000BFF34F8FBFF36F8F7047C04604ED00E02A
:1028E00072B6044A136801331360BFF34F8FBFF30E
:1028F0006F8F704738000020034A1368013B136054
:10290000002B00D162B6704738000020EFF3108032
:1029100072B6704780F31088704700000000000016
:10292000EFF309800E4B1A6820381060F0C044465F
:102930004D4656465F46F0C008B572B6FFF738F808
:1029400062B60CBC116808681030F0C8A046A946F1
:10295000B246BB4680F309882038F0C81847C04605
:102960001401002010B5FFF7D1FF0400FEF736FF79
:10297000002803D0034B802252051A602000FFF785
:10298000C9FF10BD04ED00E0054B00221A600549A7
:102990000A60054A0549116007221A607047C0465F
:1029A00010E000E018E000E014E000E03F1F00004D
:1029B00010B50C4B1968FF2212040A431A601968FB
:1029C000FF2212060A431A60FFF7DEFF064B0022C1
:1029D0001A60FFF74DFFFEF7EBFFFFF739FF00200E
:1029E00010BDC04620ED00E03800002010B583790E
:1029F000002B2CD01A4B1A6801688A431A605A6857
:102A000001688A435A6002799C46624411680468EE
:102A1000214311609A6801688A439A60DA68016804
:102A20008A43DA604379102B07D00D4A94466344F9
:102A30001A6801680A431A6011E063469A680168DF
:102A40000A439A60DA6801680A43DA6007E00379AA
:102A5000034A944663441A6801688A431A6010BDA9
:102A600000040140034B5B691840431E9841C0B20B
:102A70007047C04600040140014B58617047C04692
:102A80000004014010B503230B409B008908890016
:102A9000064A944661448A680F249C40A2438A6097
:102AA0008A6898401043886010BDC046000001400D
:102AB00070B50400430707D0072302009A431300B0
:102AC000083383421ED91C00FEF77AFE154B1B68A3
:102AD000002B1ED00025002C0CD0124B5D682C1949
:102AE000114B9C420AD8A5420AD20E4B1A68944652
:102AF00065445C60FEF7E2FE280070BD0025F9E742
:102B00000025F7E7FEF75CFE064B1B680024002B50
:102B100005D1044A054B07218B431360DAE70025F2
:102B2000E8E7C0468C010020F71700009C01002058
:102B30007047000000B583B0802001218002FDF7BE
:102B40006DFB144B009303236A461371537190205D
:102B50006946C005FFF796F980200121C002FDF704
:102B60005DFB69460C48FFF78DF9802001210003C9
:102B7000FDF754FB69460948FFF784F980200121DD
:102B8000C003FDF74BFB69460548FFF77BF903B02F
:102B900000BDC046FFFF00000004004800080048D8
:102BA0000014004870B582B0802001218002FDF73A
:102BB00035FB90231B01009301266B461E710024F8
:102BC0009C71DC7103255D7190206946C005FFF79B
:102BD00059F980200121C002FDF720FB80230093DA
:102BE0006B461E719C71DC715D7169460948FFF787
:102BF00049F980200121C003FDF710FB4023009319
:102C00006B461C71DC7169460348FFF73BF902B063
:102C100070BDC046000400480014004870B58AB07A
:102C200009A81B230370022646701A3B837000F02C
:102C300059F9E1235B020193002402940394049464
:102C400006940C230593802001218002FDF7E6FA0B
:102C500080200121C001FDF7EFFA9025ED0501224A
:102C600009212800FFF757F901220A212800FFF760
:102C700052F907A9C023DB0007930E7103234B71A0
:102C80008C71CC712800FFF7FDF8084C01A92000D9
:102C9000FFF798F901212000FFF7F2F9012204491A
:102CA0002000FFF701FA0AB070BDC04600380140AD
:102CB0000501050030B585B0802001214002FDF7F7
:102CC000BBFA01AC2000FFF77FFA0023638050338A
:102CD0002380143363600D4D21002800FFF724FA90
:102CE00001210B48FFF79AFA012201212800FFF782
:102CF00080FA14236A461370123B5370013B9370A1
:102D0000684600F0EFF805B030BDC0460040014015
:102D10000020004030B589B080200121C002FDF7BD
:102D20007DFA80200121C001FDF794FA01A9E0237A
:102D30001B02019302230B7101334B7100248C7130
:102D4000023BCB711E4D2800FFF79CF800220D219D
:102D50002800FFF7E0F800220F212800FFF7DBF83A
:102D600000220E212800FFF7D6F803A90C80822349
:102D70005B004B80E023DB008B80CC800C818023C8
:102D80009B004B81F93BFF3B8B81CC81013B0B824C
:102D90000C4C2000FEF7AAFF00212000FEF7FEFFEA
:102DA000802149002000FEF7E1FF80214901200039
:102DB000FEF7D2FF01212000FEF7C2FF09B030BDAF
:102DC0000004004800380040F0B593B005000F0043
:102DD000304C2000FDF798FC802001218000FDF799
:102DE0002BFA01210120FDF719FA2B4E3000FEF7D6
:102DF000E3FA2000FDF7CAFC284B01930295002559
:102E000003950497059580230693803307938023C9
:102E1000DB0008932023099380239B010A930B95E1
:102E200001A93000FEF710FB01213000FEF72AFB5C
:102E300000212000FDF7D1FC01212000FDF7C1FC9D
:102E40000CAE3000FDF788FC0C9501233371B560A2
:102E50003561756131002000FDF768FC0122102109
:102E60002000FDF78DFC012220212000FDF788FCC9
:102E7000012240212000FDF783FC01212000FDF705
:102E800073FC074D29002000FDF7B0FC0028F9D0A5
:102E900013B0F0BD0024014008000240402401406E
:102EA0000100000110B584B001210120FDF7C4F933
:102EB00006210520FFF7E6FD02A840230293002328
:102EC00003710C33437101248471FFF78FFD01A856
:102ED00007230370053B4370847000F003F804B0CF
:102EE00010BD000070B58378002B08D103781F2235
:102EF0001A4001239340114980228B5070BD037802
:102F00009A0892000D498C466244C026B600945936
:102F100003211940C900FF231D008D40AC434578B3
:102F2000AD012B408B402343935103781F221A405D
:102F30000123934062461360E0E7C04600E100E0F1
:102F4000002243088B4274D303098B425FD3030AE8
:102F50008B4244D3030B8B4228D3030C8B420DD3FB
:102F6000FF22090212BA030C8B4202D31212090289
:102F700065D0030B8B4219D300E0090AC30B8B42C7
:102F800001D3CB03C01A5241830B8B4201D38B0375
:102F9000C01A5241430B8B4201D34B03C01A52411A
:102FA000030B8B4201D30B03C01A5241C30A8B425D
:102FB00001D3CB02C01A5241830A8B4201D38B0248
:102FC000C01A5241430A8B4201D34B02C01A5241EC
:102FD000030A8B4201D30B02C01A5241CDD2C3095E
:102FE0008B4201D3CB01C01A524183098B4201D3DA
:102FF0008B01C01A524143098B4201D34B01C01AC5
:10300000524103098B4201D30B01C01A5241C3083C
:103010008B4201D3CB00C01A524183088B4201D3AB
:103020008B00C01A524143088B4201D34B00C01A97
:103030005241411A00D20146524110467047FFE703
:1030400001B5002000F006F802BDC0460029F7D007
:1030500076E770477047C046F0B50F2A37D90D00A4
:1030600005430C000300AD0735D11500103D2D09B7
:103070002E013618103627681F6067685F60A768E2
:103080009F60E7681034DF601033B342F3D10F2440
:1030900001352D01491914404519032C1DD9002370
:1030A000CE58EE500433E61A032EF9D80323043C1D
:1030B000A4080134A4001A402D190919002A05D0CA
:1030C0000023CC5CEC5401339342FAD1F0BD0500EF
:1030D000002AF5D1FAE70500F2E72200F8E7C0463A
:1030E000F0B5830746D0541E002A42D0CEB202006B
:1030F000032502E01A00013C3BD3531C16702B42FF
:10310000F8D1032C2DD9FF220A40150215432A04B9
:1031100015430F2C16D92700103F3F093E01B44636
:103120001E001A0010366644156055609560D56023
:103130001032B242F8D10F2201373F01DB1914409F
:10314000032C0ED9261FB608B700BC461A001F1D57
:10315000674420C2BA42FCD103220136B6009B1953
:103160001440002C05D0C9B21C19197001339C42BF
:10317000FBD1F0BD14000300C3E7C046A60400085D
:10318000A6040008E6040008E6040008E6040008B7
:10319000E6040008A6040008111213141516000016
:1031A0000A0B0C0D0E0F10006E5246323400000058
:1031B000426C696E6B65720044697361626C657222
:1031C000000000004144435F686E646C0000000032
:1031D000554152545F686E646C000000524144498E
:1031E0004F5F686E646C0000546D72310000000027
:1031F000546D723200000000546D72330000000004
:103200002413000824130008241300086C1300087A
:1032100078130008941300082413000824130008EE
:103220006C13000878130008546D72510000000000
:10323000546D72205376630049444C4500000000F1
:10324000000000000102030401020304060708094C
:1032500001000000E803E803E8030000E71CE301C5
:103260000400000000000000000000000102030450
:0C3270000607080900127A00AAAAAAAA00
:0400000508000000EF
:00000001FF
