:020000040800F2
:10000000002000205D100008A9100008A9100008B9
:1000100000000000000000000000000000000000E0
:10002000000000000000000000000000052A000899
:100030000000000000000000612A0008A52A000856
:10004000A9100008A9100008A9100008A9100008AC
:10005000A9100008A9100008A9100008190D00082F
:10006000A9100008A9100008A9100008A91000088C
:10007000A9100008A9100008A9100008A91000087C
:10008000A9100008A910000800000000A91000082D
:10009000A10C0008A9100008A9100008A910000868
:1000A000A9100008A9100008A9100008610D000897
:1000B000A910000800000000A910000800000000BE
:1000C0005FF808F110B50B4B1868FA21890003F0AE
:1000D00039F80138084A50600848036A1B021B0AB5
:1000E000C02109060B4303620023936005331360AC
:1000F00010BDC0463400002010E000E000ED00E03C
:1001000070B50400404B5A680C231340042B43D0B5
:10011000082B44D0002B02D03C4B036001E03B4B4A
:10012000036039494B681B061B0F3948C35CDBB2BF
:1001300025682A00DA4062604B685B055B0FC35C90
:10014000DBB2DA40A2600B6BDB0544D4314BE360D9
:100150002D4B1B6B5B0648D42F4B23612A4B1B6B2B
:10016000DB0646D4294B6361274B1B6B9B0742D0B0
:10017000254B1A6B03231340012B3ED0224B1A6BE5
:1001800003231340022B3AD01F4B1B6BDB439B070F
:1001900032D11E4BA3612FE01C4B0360C1E71A4B09
:1001A0005D685B68AD022D0F0235DB0308D46B017F
:1001B0005B1B9801C01AC00045192D022560B0E7ED
:1001C000114BDB6A0F2119400131104802F0BAFFD0
:1001D00045432560A5E70C4B5B685B0402D45308DC
:1001E000E360B5E79308E360B2E780231B02236175
:1001F000B4E76561B8E7A26170BDA561FCE7802343
:100200001B02A361F8E7C0460010024000127A000A
:1002100000000020809FD50012800000002904D13A
:10022000044A5369834353617047024A5369184330
:100230005061F9E700100240002904D1044A936993
:10024000834393617047024A936918439061F9E7C9
:1002500000100240002904D1044AD3698343D361CA
:100260007047024AD3691843D061F9E70010024091
:10027000002904D1044AD3688343D3607047024AFB
:10028000D3681843D060F9E70010024070B504004D
:100290000D00802190200901C00501F07AFE1F2C7D
:1002A0000DD9200001F0D0FD23001F33DBB2022B5B
:1002B0000ED9FF2C0CD0280001F0C6FD08E01F204D
:1002C00004402020204301F0BFFD280001F0BCFDC8
:1002D000802190200901C00501F059FE70BD70B564
:1002E00006000D001400802190200901C00501F0D6
:1002F00050FE300001F0A8FD631EDBB2002C08D0D8
:100300002C00ED180135207801F09EFD0134AC423F
:10031000F9D1802190200901C00501F038FE70BD9F
:1003200070B506000D001400802190200901C00561
:1003300001F02FFE300001F087FD631EDBB2002CC0
:1003400009D02C00ED180135FF2001F07DFD207053
:100350000134AC42F8D1802190200901C00501F0A0
:1003600016FE70BD70B5060080252D019024E405B1
:100370002900200001F00DFE1F20304001F064FD37
:10038000FF2001F061FD06002900200001F0FFFDC3
:10039000300070BD00B583B0052214493020FFF74E
:1003A0009EFF052269461020FFF7BAFF6B461B78B7
:1003B0006E2B13D16B465B78522B11D16B469B7819
:1003C000462B0FD16B46DB78322B0DD16B4618795B
:1003D000343843425841C0B203B000BD0020FBE7AF
:1003E0000020F9E70020F7E70020F5E7AC3300082C
:1003F00010B504000020FFF7B5FF022C05D0FD2149
:1004000001400020FFF742FF10BD02210143C9B2A5
:10041000F7E710B504000020FFF7A4FF01212140F9
:10042000012398430143C9B20020FFF72FFF10BDFD
:1004300010B504000020FFF795FF0C2121400C238C
:1004400098430143C9B20020FFF720FF10BD10B54B
:100450000020FFF787FF8F2101403020014300205B
:10046000FFF714FF10BD10B501000520FFF70EFFC8
:1004700010BD10B500010F2319400143C9B204207B
:10048000FFF704FF10BD10B50238C1B20320FFF71B
:10049000FDFE10BD70B506000D00062822D88300B1
:1004A000144AD3589F460320FFF75CFF0130C4B2C3
:1004B0002C19802190200901C00501F06AFD0E4B26
:1004C000985D2023184301F0BFFC013D013C60789A
:1004D00001F0BAFCAC42F9D1802190200901C0059D
:1004E00001F055FD70BD0978034B185CFFF7CEFE97
:1004F000F8E7C04680330008A433000810B50400B4
:100500000620FFF72FFFF921014021430620FFF7C6
:10051000BDFE10BD10B504000620FFF723FFD72154
:10052000014021430620FFF7B1FE10BDF0B5C646DD
:1005300000B507000E0090460220FFF713FF0124CC
:10054000BC4064B2010021433F2529400220FFF74F
:100550009DFE414629400A4BD85DFFF797FE0120DA
:10056000FFF700FF012E07D0A043C1B20120FFF723
:100570008DFE04BC9046F0BD2043C1B2F6E7C046F4
:100580009C33000810B5040005280AD80120FFF7A5
:10059000E9FE0123A3409843C1B20120FFF776FE94
:1005A00010BD00210120FFF771FEF9E710B5FF2112
:1005B000E120FFF76BFE10BD10B5FF21E220FFF731
:1005C00065FE10BD10B50720FFF7CCFE702101437A
:1005D000C9B20720FFF75AFE10BD10B50821002050
:1005E000FFF754FE3F210120FFF750FE03210220B8
:1005F000FFF74CFE03210320FFF748FE03210420F0
:10060000FFF744FE02210520FFF740FE0E210620E1
:10061000FFF73CFE00210720FFF738FE00211120E4
:10062000FFF734FE00211220FFF730FE00211320D7
:10063000FFF72CFE00211420FFF728FE00211520D3
:10064000FFF724FE00211620FFF720FE00211C20CA
:10065000FFF71CFE00211D20FFF718FEFFF7ACFF7F
:10066000FFF7A4FFFFF7AEFF802190200901C0052E
:1006700001F08DFC10BD000070B505000E000720D4
:10068000FFF770FE0407640F052C0CD8084B185DAB
:10069000FFF768FE3070002808D0020029006120B2
:1006A000FFF73EFE02E000233370FF24200070BD00
:1006B0009C33000870B580256D009024E405290066
:1006C000200001F066FC0E490120FFF7E3FE052241
:1006D00000210120FFF72AFF0120FFF79AFEFFF714
:1006E00071FF0220FFF784FEFFF766FFFFF75EFF52
:1006F0002900200001F04BFC024B01221A7070BD52
:100700001C0000201F00002010B5074B984200D0AD
:1007100010BD8024A40001212000FFF7A9FD0021C5
:100720002000FFF7A5FDF3E70024014010B5C268E3
:100730000B688C682343CC6823430C6923434C69C2
:100740002343044C224013430A7952031343C360EA
:1007500010BDC04603D2FFFF002303600371836016
:10076000C360036143617047002904D1836802229A
:100770001343836070478368012213438360F9E762
:10078000836A194381624261704700008268802356
:100790001B06134383608268064B002A03DA8268D3
:1007A000013B002BF9D18368002B01DB006C704703
:1007B0000020FCE7FFEF00008368042213438360FE
:1007C0007047002904D1C36801229343C360704776
:1007D000C36801221343C360F9E7C368022293434D
:1007E000C360C3681943C16070470000CB0107D5DF
:1007F0008068044B18400140481E8141C8B27047D0
:100800000068F8E7FFFFFFFEF8B5114F114C01211A
:100810004942386801F0D6FF00256562FA239B0043
:10082000E362FA2676006663238C05221343238451
:100830009620400001F0ECF86562E662FA236363FB
:10084000C82001F0E5F8238C052293432384DEE7DA
:10085000A01900200044014070B5094C2600250075
:1008600004E001233370322001F0D2F82378002B0A
:10087000F7D000232B70322001F0CAF8F6E7C0460B
:100880001000002070B5044D044C0A222900206895
:1008900001F01CFFF9E7C046D0190020A419002080
:1008A00010B5074C3221206801F08CFF054B002267
:1008B000DA7020680023002101F039FE10BDC04627
:1008C000A81900203C00002010B5074C32216068B8
:1008D00001F078FF054B0022DA71606800230021E7
:1008E00001F025FE10BDC046A81900203C000020E4
:1008F00010B5074C3221A06801F064FF054B0022BF
:10090000DA72A0680023002101F011FE10BDC0467C
:10091000A81900203C000020F0B583B06B460022EF
:10092000DA7101277F421B4E1B4D3A006B46D91DE1
:10093000306801F0CBFE002300220021286801F07E
:10094000F6FD164C8021200001F021FB962001F0DD
:100950005FF88021200001F01CFB962001F058F880
:100960008021200001F013FB962001F051F8802136
:10097000200001F00EFB962001F04AF880212000B3
:1009800001F005FB962001F043F88021200001F0E2
:1009900000FBCAE7E4190020A01900200004004869
:1009A000F0B5DE464F464646C0B586B0564D574F69
:1009B0002E0095E0544BDA78182313400F2202A939
:1009C0008C4662441370524B186801F097FF002860
:1009D00011D1039B9B004F4AD2180121D1704E4A7E
:1009E0009C5800F035FF02000023009301212000F5
:1009F00000F0E4FB26E0464B1868002300220F219C
:100A000002ACA446614401F092FDE2E701300432F9
:100A1000032821D00390029214786445F6D15478CB
:100A20004445F3D194784C45F0D1012182003B4BF1
:100A30001400D058494201F0C5FE364B1B19DB7833
:100A4000002BB7D0039B9C00344BE05800230022BE
:100A5000002101F06CFD43E0002010E02C4B1B68EE
:100A60009846002300220F2102A884466144404694
:100A700001F05DFD24E001300433032830D0040090
:100A800002931A78002AF6D15A78002AF3D19A787C
:100A9000002AF0D11F4B82006046D0549B1842467A
:100AA0005A704A469A7018231940093B02AA944684
:100AB00063441970164B186801F020FF0028CDD14F
:100AC000A400144B1B190122DA70134BE45800F0F8
:100AD000BFFE0200002300930121200000F06EFB06
:100AE000012252422900386801F0F0FDE9784B07F5
:100AF000F6D533789C4673789846B3789946054B7B
:100B00001A00002086E7C046C0190020BC1900204A
:100B1000E41900203C000020D8190020A81900206A
:100B2000F0B583B06B460022DA71594D594F3E0043
:100B30000AE04121584801F0EFFA574C40212000CB
:100B400001F00DFB0028F9D00124644222006B461D
:100B5000D91D286801F0BAFD6B46DB79322B04D031
:100B6000332B4CD0312BF1D1E3E77988090A4A487D
:100B700001F0D2FA484C4021200001F0F0FA0028A0
:100B8000F9D07188444801F0C7FA434C4021200055
:100B900001F0E5FA0028F9D03E4B1988090A3E48D1
:100BA00001F0BAFA3C4C4021200001F0D8FA0028AC
:100BB000F9D0384B1988384801F0AEFA364C40214C
:100BC000200001F0CCFA0028F9D0324B9988090AAC
:100BD000314801F0A1FA304C4021200001F0BFFA69
:100BE0000028F9D02B4B99882B4801F095FA2A4C14
:100BF0004021200001F0B3FA0028F9D0A4E7274BE8
:100C00001978254801F088FA234C4021200001F092
:100C1000A6FA0028F9D0214B59781F4801F07CFA38
:100C20001D4C4021200001F09AFA0028F9D01B4BFE
:100C30009978194801F070FA174C4021200001F012
:100C40008EFA0028F9D0154B1979134801F064FA8F
:100C5000114C4021200001F082FA0028F9D00F4BFE
:100C600059790D4801F058FA0B4C4021200001F051
:100C700076FA0028F9D0094B9979074801F04CFA27
:100C8000054C4021200001F06AFA0028F9D05BE70A
:100C9000B8190020D0190020003801403C00002085
:100CA00010B582B0002301930121154801F042FBE9
:100CB000002801D102B010BD022000F031FC002854
:100CC00004D101210E4801F040FBF3E70D4C0E4B1F
:100CD0009A882280DA8862801B89A3800B48FFF7FC
:100CE0006BFD0B4B1868022301AA210001F0B5FC33
:100CF000019B002BE5D0074B802252051A60E0E7EC
:100D000000400140C81900201000002000240140CC
:100D1000A419002004ED00E010B5402001F042FFCE
:100D2000002800D110BD0A4C0A492000FFF7A4FC9E
:100D3000094B1870FFF746FC084B18680023002287
:100D4000210001F08AFC402001F036FFEAE7C046AE
:100D5000981900209D190020B4190020BC1900200A
:100D600000B583B06B460022DA710A490A4801F0E7
:100D7000FCF9002801D103B000BD074801F0D0F90B
:100D80006B46D91D0870054B18680023002201F03E
:100D900064FCF0E70501050000380140B8190020A7
:100DA00030B583B001F066FF01F09CFF02F0B4F8AB
:100DB00001F0D4FF02F01EF802F04CF8864803213F
:100DC000043002F003F902F06FF980219024E40569
:100DD0004900200001F0DDF880210901200001F028
:100DE000D6F8FFF76FF905237C4980225202002BC9
:100DF00004D008681042FAD0013BF8E7FFF7CAFABE
:100E0000002800D1DBE0AA21754801F085F9744C77
:100E10004021200001F0A3F90028F9D0FFF7DDFB05
:100E2000FF20FFF7AFFB7320FFF71DFB2020FFF72C
:100E300071FBFFF70CFB0C20FFF7FAFA0320FFF71A
:100E400022FB654D2C000C3421000620FFF722FB0D
:100E500021000020FFF71EFB0620FFF74FFB0021BB
:100E60000920FFF706FB0020FFF7D3FAFFF7AAFBE4
:100E70000220FFF7BDFA0024EC7380219020490086
:100E8000C00501F086F8FFF715FC002206210120BD
:100E900001F02AFB534B186000220121082001F0C9
:100EA00023FB514B186000220521062001F01CFB9A
:100EB0004E4B186000220121032001F015FB4C4B22
:100EC00018600194012500950023402249494A48B1
:100ED00000F09CFB019400950023402247494848BC
:100EE00000F094FB019400950023402245494648B8
:100EF00000F08CFB019403230093002380224349DC
:100F0000434800F083FB019400950023802241496F
:100F1000414800F07BFB01940223009300238022D0
:100F20003E493F4800F072FB3E4B009300230022F5
:100F300066213D4800F01EF93C4D28603C4B009373
:100F40000023002266213B4800F014F968603A4B08
:100F50000093002300226621384800F00BF9A860B6
:100F6000012001F068FB364D2860012001F063FB91
:100F70006860012001F05FFBA8600021032001F000
:100F8000CCFA304B186001212F4801F066F901219D
:100F90002E4801F062F92E48FFF70EFC0F4A2D4B48
:100FA00053602D48036A1B021B0AC02109060B432C
:100FB000036294600723136000F014FCFEE7BB217A
:100FC000074801F0A9F8064C4021200001F0C7F8BD
:100FD0000028F9D022E7C0461000002010E000E011
:100FE00000380140A4190020B8190020BC190020C5
:100FF000E4190020B433000809080008BC330008D5
:1010000019090008C433000859080008D033000843
:1010100085080008DC330008210B0008E8330008CD
:10102000A1090008A1080008F4330008D81900201D
:10103000C9080008FC330008F1080008043400085F
:10104000A8190020A01900200040014000440140E0
:10105000002401403E1F000000ED00E00C488546E2
:10106000002103E00B4B5B58435004310A480B4B03
:1010700042189A42F6D30A4A02E00023136004326F
:10108000084B9A42F9D300F00BFFFFF789FEFEE709
:10109000002000204C340008000000203C0000200C
:1010A0003C000020581A0020FEE7000010B5416007
:1010B000006191420BD8D21A012483699A4211D25D
:1010C000011D094B186800F091FF00240AE09A42C4
:1010D00002D20124994205D2011D034B586800F049
:1010E00085FF0024200010BD4C00002070B501F0E9
:1010F00097FC104B9B68002B02D001F09DFC70BD4B
:101100000C4C26000C36300000F056FF2500203530
:10111000280000F051FF6660256000220C210320AA
:1011200001F0E2F9A0600028E7D0034901F0F2FBEA
:10113000E3E7C0464C0000203434000800B583B01B
:10114000FFF7D4FF084B9B680020002B0AD0064B0A
:1011500034330193022300930023402203490448BF
:1011600000F054FA03B000BD4C0000203C340008ED
:10117000B9120008F0B583B007000E0001921D00FF
:10118000282001F035FD041E14D024230022C2546F
:10119000FFF7ACFF2760A661E56108992162201D79
:1011A00000F015FF019B002B04D02422A35C042136
:1011B0000B43A354200003B0F0BD000030B585B050
:1011C0001D00134B9C68002C20D0019102920390CB
:1011D000052913DC00F0FEFC022807D00C4B9868B0
:1011E0000023002201A901F0A2F90DE0084B986844
:1011F0000023089A01A901F09AF905E000232A00CA
:1012000001A9200001F029FA05B030BD0020FBE75C
:101210004C000020F0B5DE4657464E464546E0B548
:1012200083B0814600F014FB8346224B9B6B8342C4
:101230000DD800234A4613601E4B5A469A635846FF
:1012400003B03CBC90469946A246AB46F0BD194D52
:101250002423984604266B681A68002A22D0DB688B
:101260001A689246DC68271D380000F0D6FE200080
:10127000236A98474346E35C1E42ECD0A36953447B
:101280009A4507D2636024610A4B5868390000F020
:10129000ADFEDFE700230093524600212000FFF758
:1012A0008DFFD7E7034A11685160136001234A4656
:1012B0001360C1E74C000020F0B589B05C4E736844
:1012C0001A68002A21D0DB681C6800F0B9FA05A86A
:1012D000FFF7A0FF0500059A002A60D1A04223D3A2
:1012E00000F02CFB524B5B68DB68DF68381D00F0B8
:1012F00094FE2423FB5C5A073DD4012293432332FE
:10130000BB543B6A3800984717E000F099FA05A8EB
:10131000FFF780FF0500059B002B40D1444B1B6865
:101320001A6853425A410024611B414B986801F0EE
:1013300009FB00F003FB00282ED03D4C002205A93C
:10134000A06801F0C3F90028B9D0059B0393002BD6
:10135000F4DB079D6B69002B02D0281D00F05DFEB9
:1013600004A8FFF757FF059A0392092AE6D89300CD
:10137000304AD3589F46BB69E11823002A00380041
:10138000FFF794FE0028BCD0002300932200002128
:101390003800FFF713FFB4E701F036FBCDE700F0AC
:1013A000CDFACAE72422AB5C01210B43AB54069B68
:1013B000AA69944663441900069B02002800FFF7BF
:1013C00075FE0028BAD028002B6A98472423EB5CCE
:1013D0005B07B3D5069BA9698C4663441A000023BA
:1013E000009300212800FFF7E9FEA7E72422AB5C69
:1013F00001218B43AB54A1E72422AB5C01210B43B9
:10140000AB540699A9614118030002002800FFF7B8
:101410004DFE93E72423EB5C9A0704D50122934306
:101420002332AB548AE7280001F022FC86E7C0464D
:101430004C0000200C34000803681C4A1340036071
:101440000023036043608360C360194B984212D04D
:10145000184B984215D0184B984218D0174B984209
:101460001CD0174B98420BD1164A5168F0231B032E
:101470000B43536004E0134A53680F210B4353603E
:101480007047104A5368F0210B435360F8E70D4A48
:101490005168F0231B010B435360F1E7094A51687F
:1014A000F0231B020B435360EAE7C046FEFF000037
:1014B000080002401C00024030000240440002408C
:1014C000580002400000024010B503680C4A1A4060
:1014D0008B680C6A23430C6923434C6923438C6952
:1014E0002343CC6923434C6A23438C6A234313432D
:1014F0000360CB6843600B6883604B68C36010BDBA
:101500000F80FFFF002904D10368044A13400360E1
:1015100070470368012213430360F9E7FEFF0000F0
:10152000034B1B681840431E9841C0B27047C04629
:1015300000000240074B1B681B68002B05D0054BC1
:101540001A68D26812685A607047024B01225242F0
:101550005A60F9E788000020F8B5124F3C00114EA0
:10156000BB68002B17D001F05BFAA369DD68281D6A
:1015700000F053FD236A013B2362A368013BA36093
:1015800001F05AFA286B01F073FB280001F070FBA0
:10159000A368002BE7D1736A012BE1D901F034FA7B
:1015A000DDE7C0468800002070B504000D00154B33
:1015B0009E68D868043000F030FD631C12D03419E6
:1015C000104BDB685C60A64215D80F4D28680D4BA8
:1015D000D968043100F00AFD6B68A34211D90A4BA7
:1015E0005C600EE0002DEAD00648C168043110307E
:1015F00000F0F0FC05E0034B586AD968043100F0B4
:10160000F5FC70BD0801002088000020F0B5CE4632
:10161000474680B583B000900C00019396003000DF
:1016200001F0E6FA051E00D1D5E0702001F0E0FAE5
:10163000071E65D00563321FAA1807239A431600B8
:10164000002C63D022783423C2542378002B0CD092
:10165000013403003533443022781A702278002A8E
:1016600003D0013401338342F6D143230022FA54DC
:101670000A9D042D00D90425FD627D640023BB640E
:101680003C1D200000F0A3FC3800183000F09FFC47
:101690003F6105235B1BBB617F6238004C30142225
:1016A000002101F01FFE380060300C22002101F003
:1016B00019FE38006C300322002101F013FE019A5C
:1016C0000099300001F08EF938600B9B002B00D0A0
:1016D0001F6001F0A5F9414A136A01331362404BC0
:1016E000DB68002B16D03E4B5B6E002B17D13C4BBA
:1016F000DB68DB6AFA6A934211D8394BDF600EE08F
:10170000280001F0B5FA0120404228E034230022ED
:10171000C254ADE7324BDF60136A012B24D0304B4B
:101720009A6E01329A66FA6ADB6E9A4201D92C4BA4
:10173000DA662A4B90008218920024339818210010
:1017400000F048FC01F078F9254B5B6E0120002B7E
:1017500005D0234BDB68DA6AFB6A9A4237D303B0C1
:101760000CBC90469946F0BD15001000243000F0E6
:1017700023FC2800383000F01FFC28004C3000F01B
:101780001BFC2800603000F017FC2800743000F0CB
:1017900013FC134E28239946B144484600F00CFC34
:1017A0003C239846B044404600F006FC30005030E0
:1017B00000F002FC28000C3000F0FEFB300010307E
:1017C00000F0FAFB4B462B6043467362A7E701F03B
:1017D0001BF90120C3E701204042C0E78800002038
:1017E0000801002000B583B0104B7833019300232B
:1017F000009340220E490F48FFF708FF012803D04D
:101800000D4B1B6803B000BDFFF798FC0128F7D112
:1018100072B60A4B012252425A60044B02325A6697
:1018200000229A6001F064F9EAE7C046080100204E
:1018300044340008591500082000002088000020CA
:10184000024A136F013313677047C0460801002036
:10185000014B98687047C04608010020F8B5CE4695
:10186000474680B5324B1B6F002B56D1304B9F68DB
:1018700001379F60002F38D02E4B5B680025BB429C
:1018800042D800252B4B994624229446634498461F
:101890004B461B681B68002B32D0264B1B68DB684D
:1018A000DE6873689F4235D3341D200000F0B5FB1D
:1018B000B36A002B03D03000183000F0AEFBF36A9F
:1018C0001B4AD26E934201D9194AD3669800C018B8
:1018D00080004044210000F07DFB154BDB68F26A7C
:1018E000DB6A9A42D4D30125D2E7124A1168586ABA
:1018F00010605962DA6F0132DA67FFF71BFEBBE74F
:101900000C4B012252425A60094B5B6F002B09D0ED
:10191000012507E0074A5360F6E7074A13680133D9
:101920001360002528000CBC90469946F8BDC046BF
:10193000080100208800002088010020F0B5C6467C
:1019400000B501F06DF82F4B1A6F013A1A671B6F43
:101950000024002B4CD12C4B1B6A00250024002BAB
:1019600046D0284F284B24229446634498463B6D2A
:10197000002B21D0234EF36DDD682800183000F0D5
:101980004CFB2C1D200000F048FBEB6AF26E9342EA
:1019900001D91C4AD3669800C01880004044210039
:1019A00000F018FB174BDB68DB6AEA6A9A42DED369
:1019B000144B01225A67DAE7002D01D0FFF7BAFD78
:1019C000124B1C68002C0ED00E4E012502E0013C8B
:1019D000002C05D0FFF742FF0028F8D07567F6E726
:1019E0000A4B00221A60074B5B6F0024002B05D1C5
:1019F00001F022F8200004BC9046F0BD01F004F88C
:101A00000134F5E70801002088000020880100204B
:101A100010B5041E09D0FFF713FF00212000FFF7C7
:101A2000C3FDFFF78BFF002801D100F0EDFF10BDD3
:101A300010B51D4B1B6F002B2CD11B4B00225A677E
:101A4000DA6E93009B189B001849CB185B6A002B39
:101A500007D1013A93009B189B00CB185B6A002BBF
:101A6000F7D0124B9100881880001818846A6468B7
:101A700084628918890003002C339C420ED09300A5
:101A80009B189B000949CB189B6AD968064BD96003
:101A9000DA6610BD044B01225A67FAE760680B0052
:101AA0000249CB189862EAE708010020880000206C
:101AB00010B50C00044BD968183100F097FA0121D9
:101AC0002000FFF771FD10BD0801002070B50D006A
:101AD0001400074BD968183100F07CFA002C01D0B3
:101AE00001256D4221002800FFF75EFD70BDC04654
:101AF0000801002070B5C368DC682500183528008F
:101B000000F08BFA144B1B6F002B1FD1251D2800F2
:101B100000F083FAE26A104BDB6E9A4201D90E4B59
:101B2000DA660E4B90008218920024339818290030
:101B300000F050FA084BDB68E26ADB6A00209A4248
:101B400003D9054B01225A67013070BD02482900B4
:101B5000503000F03FFAEDE7080100208800002037
:101B6000024BDA6F02609B684360704708010020F7
:101B700070B505000C0000F053FF124B9B68226803
:101B8000511C1CD069680F48C06F2E68864201D076
:101B9000994209D95B1A9A420AD80023236001248A
:101BA00000F04AFF200070BD002323600124F7E706
:101BB000D31A23602800FFF7D3FF0024F0E70024A6
:101BC000EEE7C04608010020014B01225A6770472A
:101BD00008010020054B5B6E0120002B04D0034B55
:101BE000186F4342584140007047C046080100202A
:101BF00070B5041E3ED0C16A1F4BDB68DB6A994298
:101C000030D28369002B05DB1B4BDB68DA6A0523C6
:101C10009B1A8361194A8B005918890013002433D9
:101C20005B1862699A4205D0134BDB68DB6AE3629A
:101C300001201EE0251D280000F0EFF90E4BDA68A8
:101C4000D26AE262DB6E9A4201D90B4BDA660B4B29
:101C500090008218920024339818290000F0BAF9F5
:101C6000012006E0044BDB68406CDB6A984280414F
:101C7000404270BD0020FCE70801002088000020E1
:101C800070B5041E24D0836C013B8364C26A416C2E
:101C90008A421FD00020002B00D070BD251D2800D7
:101CA00000F0BBF9606CE06205231B1AA3610A4BCC
:101CB000DB6E984201D9084BD866084B8200121897
:101CC000920024339818290000F084F90120E4E7F9
:101CD0000020E2E70020E0E7080100208800002063
:101CE00070B5041E09D0436C8B4200D20B00E26A2F
:101CF0009A4202D0A16C012900D070BDE362A169B3
:101D0000002902DB0521CB1AA3610F4B9100891832
:101D1000890024335A1863699342EED1251D2800A7
:101D200000F07BF9E26A094BDB6E9A4201D9074B5E
:101D3000DA66054B90008218920024339818290027
:101D400000F048F9D9E7C0468800002008010020CB
:101D5000054BDB68002B04D0034BDA68936C01332E
:101D60009364014BD86870470801002010B50288C1
:101D7000C1239B011A400B88CC892343CC88234381
:101D80000C8923434C8923438C89234313430380C9
:101D90008388094A13408A88134383800B8A03820D
:101DA0000388042293434A8813430380838B034AA6
:101DB0001340838310BDC046FFF0FFFFFFF7FFFF16
:101DC000002904D10388402293430380704703888D
:101DD000402213430380F9E78388034A134083803A
:101DE0008388194381807047FFEFFFFF064B9942BC
:101DF00005D0038880225200134303807047038874
:101E0000024A13400380F9E7FFFE0000FFFEFFFFD8
:101E100001737047007BC0B270470000002904D1F5
:101E20000388054A1340038070470388802292018B
:101E300013430380F8E7C046FFDFFFFF0089084037
:101E4000411E8841C0B2704770B505000A4C02219E
:101E50002000FFF7F3FF0028F9D029000648FFF71C
:101E6000D7FF054C01212000FFF7E8FF0028F9D03B
:101E70000148FFF7CFFF70BD00380040064B11222C
:101E80001A60064B5A685A605A685A605A680321A9
:101E90008A435A607047C04600200240001002404A
:101EA00010B5124B1A6801210A431A605A6810488B
:101EB00002405A601A680F4802401A601A680E48B9
:101EC00002401A605A680D4802405A60DA6A0F20D0
:101ED0008243DA621A6B0A4802401A635A6B8A43D9
:101EE0005A6300229A60FFF7C9FF10BD001002403C
:101EF0000CB8FFF8FFFFF6FEFFFFFBFFFFFFC0FF80
:101F0000ACFEFFFFF0B5C64600B500220125032355
:101F1000984618E0036857004446BC40E443234019
:101F2000036003689C460B79BB40664633430360FD
:101F3000C3681C40C460C468CB79BB402343C36002
:101F40000132102A20D02B0093400C681C40A34281
:101F5000F6D10B79013B012BDCD88368540047464E
:101F6000A740BB43836087684B79A3403B438360B2
:101F700083882C009440A343838083888C79944089
:101F800023439BB28380C5E704BC9046F0BD8161CA
:101F900070470185704710B507230B409B00C908A7
:101FA00089004018016A0F249C40A1430162016A24
:101FB0009A400A43026210BD0300083343600122C5
:101FC00052428260C36003610023036070470023B4
:101FD0000361704743684B609A688A609A685160F1
:101FE00099600861036801330360704730B50C687D
:101FF00002000832631C02D1026904E01A0053682F
:102000001D68A542FAD953684B6099608A60516097
:10201000086103680133036030BD03694268816869
:1020200091608268416851605A68824206D00022FD
:1020300002611A68013A1A601868704782685A602B
:10204000F5E70000F0B58BB004000D000368012235
:10205000934303604368254A13408A6813434360EF
:102060000368234A1A404B68C9680B4329690B432C
:102070001343036083681F4A13406A6913438360F4
:1020800003A8FEF73DF81C4B9C4221D0059E236817
:102090001B041FD576002B6801931900300001F056
:1020A00051F807000199300001F0D2F82A6852086F
:1020B000002391425B41FF1823681B0404D53B07B2
:1020C0005B0F0E4A17401F43BBB2A3810BB0F0BD9C
:1020D000099EDCE72B6801931900300001F032F80B
:1020E00007000199300001F0B3F8DFE7FFCFFFFFF1
:1020F000F3E9FFFFFFFCFFFF00380140F0FF0000A5
:10210000002904D1036801229343036070470368E8
:10211000012213430360F9E7C905C90D0185704722
:10212000808CC005C00D704730B505008BB21B0A0E
:10213000FF240C400121A140022B07D0032B07D024
:10214000002A08D12B688B432B6030BD051DF7E7B3
:1021500008300500F4E72B6819432960F5E7C069EA
:102160000840411E8841C0B2704710B58AB2120AB9
:10217000FF240C400123A340012A0FD0022A10D0D3
:1021800082681340C2690020002B06D0090C013080
:1021900088400240501E8241D0B210BD02681340F8
:1021A000F0E742681340EDE710B503889BB21F4A81
:1021B00090421CD08022D205904218D01C4A9042F6
:1021C00015D01C4A90422AD00C891B4A1340234345
:1021D00003804B68C3620B880385184B984219D063
:1021E000174B984216D0174B984213D014E0702228
:1021F00093434A8813430F4A904210D00C890E4AE9
:102200001340234303804B68C3620B880385074B4D
:102210009842E2D18B7A03860123838210BD054A5E
:1022200013804B68D3620B881385F5E7002C0140BF
:102230000004004000100040FFFCFFFF0040014090
:10224000004401400048014001235B4243600023F9
:1022500003800381438083727047002904D103887F
:1022600001229343038070470388012213430380B4
:10227000F9E7002905D14422835A5B045B0C8352A1
:1022800070474422835A802109020B438352F7E7A7
:1022900070B5038C012293430384038C8488A4B219
:1022A000058B723295430A881543022293431A0024
:1022B0008B894E88334313430F4A904208D00F4A0C
:1022C000904205D00E4A904202D00E4A90420DD163
:1022D00008229343CA891343042293438A881343F1
:1022E000094A22400C8A4E8A344314438480058371
:1022F0008A684263038470BD002C014000400140A5
:102300000044014000480140FFFCFFFF0023038020
:102310004380838083608381C381038243827047CB
:10232000002A03D183898B438381704783891943B2
:102330008181FAE7028A83899BB200200A4203D096
:102340001940481E8141C8B27047C94389B2018211
:10235000704710B5040000F063FBA46B00F06CFB49
:102360006042604110BD70B504001600856B026CC0
:10237000002A0CD100202368002B02D00135A56370
:1023800070BDA068FFF77CFC0023A360F6E7002E79
:102390000ED1406800F062FF6368226C944663448B
:1023A00063600020A2689342E8D323686360E5E796
:1023B000C06800F053FF236C5A42E3689B18E36047
:1023C00021688B4203D2A3689C466244E2600020ED
:1023D000022ED3D1002DD1D0013DCFE710B50C0096
:1023E000026C002A0BD0C3689B18C36081688B42C3
:1023F00001D30368C360C168200000F02FFF10BD47
:1024000070B5050000F00CFB4523EC5C64B2002CB9
:1024100004DD6B6A2E002436002B1FD14523FF22DA
:10242000EA5400F009FB00F0FBFA4423EC5C64B2D0
:10243000002C04DD2B692E001036002B1DD1442307
:10244000FF22EA5400F0F8FA70BDFFF7BDFB013C33
:1024500064B2002CE2D06B6A002BDFD03000FFF7B3
:1024600049FB0028F3D0F0E7FFF7AEFB013C64B274
:10247000002CE4D02B69002BE1D03000FFF73AFBB1
:102480000028F3D0F0E770B504000D0000F0C8FAA2
:102490002268216CE36B4B43D018A0600020A0633E
:1024A00062605B1AD318E360FF234422A354013215
:1024B000A354002D0FD12369002B03D100F0BCFAE7
:1024C000012070BD20001030FFF714FB0028F5D06C
:1024D00000F09AFAF2E720001030FFF76DFD2000BF
:1024E0002430FFF769FDE9E770B506000D0008002C
:1024F0007043483000F07CFB041E0AD0002D0AD047
:10250000030048330360E663256401212000FFF7E0
:10251000BAFF200070BD2060F5E710B50C00022264
:102520000021FFF7E1FF002800D0846310BDF0B563
:10253000D646474680B585B00400009101921F0041
:10254000002544260023984632E03A0000992000F6
:10255000FFF709FF636A002B09D1002810D100F0B2
:102560006BFA012005B00CBC90469A46F0BD2000E5
:102570002430FFF7BFFA0028F1D000F045FAEEE76B
:1025800000F042FAEBE700F057FA0020EAE702A871
:10259000FFF7E6FA19E04346A35520E045234246FB
:1025A000E25421E02000FFF72BFFFFF7C7F90125D8
:1025B00000F036FAA36BE26B9342C6D3022FC4D06D
:1025C000019B002BDFD0002DE1D000F035FAFFF7A2
:1025D00037F900F025FAA35D5BB20133DBD0452368
:1025E000E35C5BB20133D9D000F026FA01A902A85E
:1025F000FFF7BEFA002817D100F012FAA36B9A4633
:10260000E56B00F019FAAA45CCD1200010300199F1
:10261000FFF74EFA2000FFF7F3FEFFF78FF90028CF
:10262000C5D100F0F1F9C2E72000FFF7E9FEFFF79E
:1026300085F9002096E710B5020000210120FFF780
:1026400053FF041E07D0002383600360C360002291
:102650000021FFF76CFF200010BDF0B583B007002C
:10266000009101921D0000F0F1F90600BB6BFA6BBE
:10267000934208D30024022D05D0300000F0EAF97F
:10268000200003B0F0BD4523FC5C64B2BB6B2A00A4
:1026900000993800FFF767FE631C05D0013464B26F
:1026A0004523FC540124E8E77B6A0234002BE4D084
:1026B00038002430FFF71EFA0028DED0019A002AE5
:1026C00002D001231360D8E70124D6E7F0B5C6464F
:1026D00000B584B004000091019200274426002335
:1026E000984638E000992000FFF778FE6B1EA36340
:1026F0002369002B06D100F09FF9012004B004BC2F
:102700009046F0BD20001030FFF7F4F90028F2D019
:1027100000F07AF9EFE700F08FF90020EEE702A869
:10272000FFF71EFA21E04346A35528E04523424621
:10273000E25429E02000FFF763FEFFF7FFF809E00D
:102740002000FFF75DFEFFF7F9F82000FFF701FE1C
:10275000002835D1012700F063F9A56B002DC1D108
:10276000019B002BD7D0002FD9D000F065F9FFF7DF
:1027700067F800F055F9A35D5BB20133D3D0452370
:10278000E35C5BB20133D1D000F056F901A902A895
:10279000FFF7EEF90028D3D12000FFF7DAFD00287B
:1027A000C8D0200024300199FFF782F92000FFF7FC
:1027B00027FEFFF7C3F80028CCD100F025F9C9E7C0
:1027C00000209BE7F0B585B0040001910023009341
:1027D00000254426002743E0013BA3632368002B28
:1027E00009D02369002B0AD100F026F901230093B8
:1027F000009805B0F0BDFFF7ABFAA060F1E720004C
:102800001030FFF777F90028EED000F0FDF8EBE785
:1028100000F012F900230093EAE702A8FFF7A0F9FD
:1028200028E0A75530E04523E75432E000F0F8F8FF
:10283000A068FFF7DDF9009000F0FEF839E0200015
:10284000FFF7DEFDFFF77AF809E02000FFF7D8FD7B
:10285000FFF774F82000FFF77CFD002838D1012530
:1028600000F0DEF8A36B002BB6D1019B002BCFD07C
:10287000002DD2D000F0E0F8FEF7E2FF00F0D0F833
:10288000A35D5BB20133CCD04523E35C5BB2013383
:10289000C9D000F0D1F801A902A8FFF769F9002812
:1028A000D3D12000FFF755FD0028C8D02368002BA6
:1028B000BCD0200024300199FFF7FAF82000FFF780
:1028C0009FFDFFF73BF80028C9D100F09DF8C6E74F
:1028D000009B002B00D18BE700F0A2F8636A002177
:1028E000002B03D0236B1B680531C91AA068FFF7C2
:1028F000F7F900F0A1F80023009379E770B505001F
:1029000000F08EF8AB6BEC6BE41A00F095F8200049
:1029100070BD000010B50A4B1B68002B09D00123C5
:10292000074CDA00A258002A04D001330A2BF8D150
:1029300010BD0023024ADB009950D3185860F7E716
:10294000081A002070B504000D00160000F068F8A9
:102950004423E35C5BB201330DD04523E35C5BB2FF
:1029600001330CD000F068F8A36B002B0BD02000D3
:10297000FFF746FD70BD44230022E254EDE74523F6
:102980000022E254EEE72000243032002900FFF755
:102990009DF8ECE782B00023019372B6019B002BF7
:1029A000FCD002B0704700000000000000000000F2
:1029B0000B4A13681868203080F30988022080F3DE
:1029C0001488BFF36F8F3FBCAE4608BC04BC62B630
:1029D0001847C046C046C046C046C046C046C0466E
:1029E0001401002010B5031F802464041C60043B04
:1029F0001960043B02491960143B1A60403810BD4D
:102A00009529000870470000044B802252051A6087
:102A1000BFF34F8FBFF36F8F7047C04604ED00E0E8
:102A200072B6044A136801331360BFF34F8FBFF3CC
:102A30006F8F704738000020034A1368013B136012
:102A4000002B00D162B6704738000020EFF31080F1
:102A500072B6704780F310887047000000000000D5
:102A6000EFF309800E4B1A6820381060F0C044461E
:102A70004D4656465F46F0C008B572B6FEF7D8FF21
:102A800062B60CBC116808681030F0C8A046A946B0
:102A9000B246BB4680F309882038F0C81847C046C4
:102AA0001401002010B5FFF7D1FF0400FEF7D6FE99
:102AB000002803D0034B802252051A602000FFF744
:102AC000C9FF10BD04ED00E0054B00221A60054966
:102AD0000A60054A0549116007221A607047C0461E
:102AE00010E000E018E000E014E000E03F1F00000C
:102AF00010B50C4B1968FF2212040A431A601968BA
:102B0000FF2212060A431A60FFF7DEFF064B00227F
:102B10001A60FFF74DFFFEF78BFFFFF73BFF00202A
:102B200010BDC04620ED00E03800002010B58379CC
:102B3000002B2CD01A4B1A6801688A431A605A6815
:102B400001688A435A6002799C46624411680468AD
:102B5000214311609A6801688A439A60DA680168C3
:102B60008A43DA604379102B07D00D4A94466344B8
:102B70001A6801680A431A6011E063469A6801689E
:102B80000A439A60DA6801680A43DA6007E0037969
:102B9000034A944663441A6801688A431A6010BD68
:102BA00000040140034B5B691840431E9841C0B2CA
:102BB0007047C04600040140014B58617047C04651
:102BC0000004014010B503230B409B0089088900D5
:102BD000064A944661448A680F249C40A2438A6056
:102BE0008A6898401043886010BDC04600000140CC
:102BF00070B50400430707D0072302009A4313006F
:102C0000083383421ED91C00FEF71AFE154B1B68C1
:102C1000002B1ED00025002C0CD0124B5D682C1907
:102C2000114B9C420AD8A5420AD20E4B1A68944610
:102C300065445C60FEF782FE280070BD0025F9E760
:102C40000025F7E7FEF7FCFD064B1B680024002B70
:102C500005D1044A054B07218B431360DAE70025B1
:102C6000E8E7C0468C010020F71700009C01002017
:102C70007047000000B583B0802001218002FDF77D
:102C8000CDFA144B009303236A46137153719020BD
:102C90006946C005FFF736F980200121C002FDF723
:102CA000BDFA69460C48FFF72DF980200121000389
:102CB000FDF7B4FA69460948FFF724F9802001219D
:102CC000C003FDF7ABFA69460548FFF71BF903B0EF
:102CD00000BDC046FFFF0000000400480008004897
:102CE0000014004870B582B0802001218002FDF7F9
:102CF00095FA90231B01009301266B461E71002458
:102D00009C71DC7103255D7190206946C005FFF759
:102D1000F9F880200121C002FDF780FA802300939A
:102D20006B461E719C71DC715D7169460948FFF745
:102D3000E9F880200121C003FDF770FA40230093D9
:102D40006B461C71DC7169460348FFF7DBF802B083
:102D500070BDC046000400480014004870B58AB039
:102D600009A81B230370022646701A3B837000F0EB
:102D7000BBF9E1235B0201930024029403940494C1
:102D800006940C230593802001218002FDF746FA6A
:102D900080200121C001FDF74FFA9025ED050122A9
:102DA00009212800FFF7F7F801220A212800FFF780
:102DB000F2F807A9C023DB0007930E7103234B71C0
:102DC0008C71CC712800FFF79DF8084C01A92000F8
:102DD000FFF738F901212000FFF792F90122044999
:102DE0002000FFF7A1F90AB070BDC04600380140CD
:102DF0000501050030B585B0802001214002FDF7B6
:102E00001BFA01AC2000FFF71FFA00236380503348
:102E10002380143363600D4D21002800FFF7C4F9AF
:102E200001210B48FFF791FA012201212800FFF749
:102E300077FA14236A461370123B5370013B937068
:102E4000684600F051F905B030BDC0460040014071
:102E500000200040F0B58BB08025AD020121280094
:102E6000FDF7DCF980200121C002FDF7D7F908AC9D
:102E7000402308933E3B2371013363710026A67102
:102E8000E6719027FF0521003800FFF73BF821008D
:102E90001F48FFF737F8052206213800FFF77BF8B7
:102EA000022206211A48FFF776F801212800FDF7D3
:102EB000C3F905AC2000FFF7C7F96680082323801B
:102EC000FA239B00636026810023A372114D210029
:102ED0002800FFF769F96846FFF718FA60236A4689
:102EE0001380568096809681D68116825682FA2368
:102EF0005B00029369462800FFF7CAF92B8C052274
:102F000093432B8401212800FFF7B3F90BB0F0BDE8
:102F1000000400480044014030B589B08020012100
:102F2000C002FDF77BF980200121C001FDF792F975
:102F300001A9E0231B02019302230B7101334B71A2
:102F400000248C71023BCB711E4D2800FEF7DAFF86
:102F500000220D212800FFF71EF800220F21280073
:102F6000FFF719F800220E212800FFF714F803A933
:102F70000C8082235B004B80E023DB008B80CC80C5
:102F80000C8180239B004B81F93BFF3B8B81CC81E3
:102F9000013B0B820C4C2000FEF7E8FE00212000D4
:102FA000FEF73CFF802149002000FEF71FFF802133
:102FB00049012000FEF710FF01212000FEF700FF6D
:102FC00009B030BD0004004800380040F0B593B0AF
:102FD00005000F00304C2000FDF796FB80200121FA
:102FE0008000FDF729F901210120FDF717F92B4E8B
:102FF0003000FEF721FA2000FDF7C8FB284B0193B3
:103000000295002503950497059580230693803348
:1030100007938023DB0008932023099380239B01DF
:103020000A930B9501A93000FEF74EFA01213000FA
:10303000FEF768FA00212000FDF7CFFB01212000F8
:10304000FDF7BFFB0CAE3000FDF786FB0C950123AE
:103050003371B5603561756131002000FDF766FBA5
:10306000012210212000FDF78BFB012220212000EE
:10307000FDF786FB012280212000FDF781FB012165
:103080002000FDF771FB074D29002000FDF7AEFB86
:103090000028F9D013B0F0BD002401400800024020
:1030A000402401400100000110B584B0012101203D
:1030B000FDF7C2F806210520FFF784FD02A8402392
:1030C0000293002303710C33437101248471FFF7D1
:1030D0002DFD01A807230370053B4370847000F0A9
:1030E00003F804B010BD000070B58378002B08D140
:1030F00003781F221A4001239340114980228B50EC
:1031000070BD03789A0892000D498C466244C0262F
:10311000B600945903211940C900FF231D008D40BA
:10312000AC434578AD012B408B402343935103784A
:103130001F221A400123934062461360E0E7C04615
:1031400000E100E0002243088B4274D303098B4264
:103150005FD3030A8B4244D3030B8B4228D3030C67
:103160008B420DD3FF22090212BA030C8B4202D309
:103170001212090265D0030B8B4219D300E0090A31
:10318000C30B8B4201D3CB03C01A5241830B8B423A
:1031900001D38B03C01A5241430B8B4201D34B0323
:1031A000C01A5241030B8B4201D30B03C01A524188
:1031B000C30A8B4201D3CB02C01A5241830A8B420D
:1031C00001D38B02C01A5241430A8B4201D34B02F6
:1031D000C01A5241030A8B4201D30B02C01A52415A
:1031E000CDD2C3098B4201D3CB01C01A524183090E
:1031F0008B4201D38B01C01A524143098B4201D348
:103200004B01C01A524103098B4201D30B01C01A72
:103210005241C3088B4201D3CB00C01A52418308EC
:103220008B4201D38B00C01A524143088B4201D319
:103230004B00C01A5241411A00D201465241104679
:103240007047FFE701B5002000F006F802BDC04658
:103250000029F7D076E770477047C046F0B50F2ACF
:1032600037D90D0005430C000300AD0735D115001B
:10327000103D2D092E013618103627681F6067682B
:103280005F60A7689F60E7681034DF601033B34267
:10329000F3D10F2401352D01491914404519032C90
:1032A0001DD90023CE58EE500433E61A032EF9D868
:1032B0000323043CA4080134A4001A402D19091961
:1032C000002A05D00023CC5CEC5401339342FAD1A0
:1032D000F0BD0500002AF5D1FAE70500F2E722006B
:1032E000F8E7C046F0B5830746D0541E002A42D006
:1032F000CEB20200032502E01A00013C3BD3531C6E
:1033000016702B42F8D1032C2DD9FF220A4015024A
:1033100015432A0415430F2C16D92700103F3F09E7
:103320003E01B4461E001A00103666441560556012
:103330009560D5601032B242F8D10F2201373F01BB
:10334000DB191440032C0ED9261FB608B700BC4663
:103350001A001F1D674420C2BA42FCD10322013665
:10336000B6009B191440002C05D0C9B21C19197065
:1033700001339C42FBD1F0BD14000300C3E7C046FB
:10338000A6040008A6040008E6040008E6040008F5
:10339000E6040008E6040008A6040008111213144D
:1033A000151600000A0B0C0D0E0F10006E5246325F
:1033B0003400000042757A7A65720000426C696ED2
:1033C0006B65720044697361626C65720000000095
:1033D0004144435F686E646C0000000055415254E4
:1033E0005F686E646C000000524144494F5F686E34
:1033F000646C0000546D723100000000546D723234
:1034000000000000546D723300000000A413000897
:10341000A4130008A4130008EC130008F813000814
:1034200014140008A4130008A4130008EC130008E7
:10343000F8130008546D725100000000546D7220A2
:0C3440005376630049444C450000000036
:10344C00000000000102030401020304060708093E
:10345C0001000000E803E803E8030000E71CE301B7
:10346C000400000000000000000000000102030442
:0C347C000607080900127A00AAAAAAAAF2
:0400000508000000EF
:00000001FF
